:020000020000FC
:100000000FEF0DBF18E01EBF00E80093610004E091
:100010000093610000E007B90FEF0AB90FE104B9DE
:100020000FE108B950E060E006B100FF0DC006B175
:1000300001FF11C006B102FF15C006B103FF19C0D0
:1000400006B104FF1DC0F0CF00000E944700309BA6
:100050000C94240020C000000E944700319B0C94A7
:100060002B0020C000000E944700329B0C943200FD
:1000700020C000000E944700339B0C94390020C030
:1000800000000E944700349B0C94400020C004E60E
:100090000A95F1F708952395203161F1522F0E94BE
:1000A0006F00C2CF2A952F3F29F1522F0E946F0077
:1000B000BBCF33953031F1F0632F0E946F00B4CF86
:1000C0003A953F3FB9F0632F0E946F00ADCF522F9A
:1000D000632F560F00E1501744F455B9A5CF5F7058
:1000E000632F6295562B5BB908950FE005230061DD
:0A00F00005B99ACF20E02BB997CF95
:00000001FF
