:020000020000FC
:100000000FEF0DBF18E01EBF00E80093610004E091
:100010000093610001E008B9389801E00AB902E0F4
:100020000AB904E00AB908E00AB920E02AB930E0C8
:100030002AB950E060E008B100FF10C0FCCF0130E9
:10004000A1F008B10230F9F008B1043019F108B19B
:10005000083039F108B1003159F1EDCF04E60A95C5
:10006000F1F7309BFBCF489AE6CF2395203159F129
:10007000522F0E943C00DFCF660F660F660F660F9F
:10008000562B5BB908952A952030E9F0522F0E9433
:100090003C00D1CF33953031B1F0632F0E943C004A
:1000A000CACF3A95303079F0632F0E943C00C3CF1D
:1000B000560F00E1501714F455B9BDCF0FE00523DA
:0C00C000006105B9B8CF20E02BB9B5CF26
:00000001FF
