:020000020000FC
:100000000FEF0DBF18E01EBF00E80093610004E091
:100010000093610000E007B90FEF0AB90FE104B9DE
:100020000FE108B950E060E006B100FF0DC006B175
:1000300001FF11C006B102FF15C006B103FF19C0D0
:1000400006B104FF1DC0F0CF00000E944700309BA6
:100050000C94240020C000000E944700319B0C94A7
:100060002B0028C000000E944700329B0C943200F5
:1000700028C000000E944700339B0C94390028C020
:1000800000000E944700349B0C94400028C004E606
:100090000A95F1F708952395203161F1522F0E94BE
:1000A0005200C2CF5F70660F660F660F660F562B49
:1000B0005BB908952A952F3FE9F0522F0E94520014
:1000C000B3CF33953031B1F0632F0E945200ACCFE3
:1000D0003A953F3F79F0632F0E945200A5CF560F0B
:1000E00000E1501714F455B99FCF0FE005230061CC
:0A00F00005B99ACF20E02BB997CF95
:00000001FF
